{
  "_format": "hh-sol-artifact-1",
  "contractName": "SQLQueryContract",
  "sourceName": "contracts/SQLQueryContract.sol",
  "abi": [
    {
      "anonymous": false,
      "inputs": [
        {
          "indexed": true,
          "internalType": "uint256",
          "name": "queryId",
          "type": "uint256"
        },
        {
          "indexed": false,
          "internalType": "string",
          "name": "ipfsCID",
          "type": "string"
        }
      ],
      "name": "QueryIPFSCIDUpdated",
      "type": "event"
    },
    {
      "anonymous": false,
      "inputs": [
        {
          "indexed": true,
          "internalType": "uint256",
          "name": "queryId",
          "type": "uint256"
        },
        {
          "indexed": false,
          "internalType": "string",
          "name": "userId",
          "type": "string"
        },
        {
          "indexed": false,
          "internalType": "string",
          "name": "sqlQuery",
          "type": "string"
        }
      ],
      "name": "QuerySubmitted",
      "type": "event"
    },
    {
      "inputs": [
        {
          "internalType": "uint256",
          "name": "_queryId",
          "type": "uint256"
        }
      ],
      "name": "getQueryCID",
      "outputs": [
        {
          "internalType": "string",
          "name": "",
          "type": "string"
        }
      ],
      "stateMutability": "view",
      "type": "function"
    },
    {
      "inputs": [
        {
          "internalType": "uint256",
          "name": "_queryId",
          "type": "uint256"
        }
      ],
      "name": "getQueryIPFSLink",
      "outputs": [
        {
          "internalType": "string",
          "name": "",
          "type": "string"
        }
      ],
      "stateMutability": "view",
      "type": "function"
    },
    {
      "inputs": [
        {
          "internalType": "uint256",
          "name": "",
          "type": "uint256"
        }
      ],
      "name": "queries",
      "outputs": [
        {
          "internalType": "string",
          "name": "userId",
          "type": "string"
        },
        {
          "internalType": "string",
          "name": "sqlQuery",
          "type": "string"
        },
        {
          "internalType": "string",
          "name": "ipfsCID",
          "type": "string"
        }
      ],
      "stateMutability": "view",
      "type": "function"
    },
    {
      "inputs": [],
      "name": "queryCount",
      "outputs": [
        {
          "internalType": "uint256",
          "name": "",
          "type": "uint256"
        }
      ],
      "stateMutability": "view",
      "type": "function"
    },
    {
      "inputs": [
        {
          "internalType": "string",
          "name": "_userId",
          "type": "string"
        },
        {
          "internalType": "string",
          "name": "_sqlQuery",
          "type": "string"
        }
      ],
      "name": "submitQuery",
      "outputs": [],
      "stateMutability": "nonpayable",
      "type": "function"
    },
    {
      "inputs": [
        {
          "internalType": "uint256",
          "name": "_queryId",
          "type": "uint256"
        },
        {
          "internalType": "string",
          "name": "_ipfsCID",
          "type": "string"
        }
      ],
      "name": "updateQueryIPFSCID",
      "outputs": [],
      "stateMutability": "nonpayable",
      "type": "function"
    }
  ],
  "bytecode": "0x608060405234801561001057600080fd5b50610f00806100206000396000f3fe608060405234801561001057600080fd5b50600436106100625760003560e01c8063584760d0146100675780636b8d3fec146100975780639b2aded4146100c7578063ab9c67ad146100e5578063c902c35b14610117578063f6711fbe14610133575b600080fd5b610081600480360381019061007c9190610678565b61014f565b60405161008e9190610735565b60405180910390f35b6100b160048036038101906100ac9190610678565b610247565b6040516100be9190610735565b60405180910390f35b6100cf6102d5565b6040516100dc9190610766565b60405180910390f35b6100ff60048036038101906100fa9190610678565b6102db565b60405161010e93929190610781565b60405180910390f35b610131600480360381019061012c9190610902565b61049d565b005b61014d6004803603810190610148919061095e565b610553565b005b606060008211801561016357506001548211155b6101a2576040517f08c379a000000000000000000000000000000000000000000000000000000000815260040161019990610a22565b60405180910390fd5b60008083815260200190815260200160002060020180546101c290610a71565b80601f01602080910402602001604051908101604052809291908181526020018280546101ee90610a71565b801561023b5780601f106102105761010080835404028352916020019161023b565b820191906000526020600020905b81548152906001019060200180831161021e57829003601f168201915b50505050509050919050565b606060008211801561025b57506001548211155b61029a576040517f08c379a000000000000000000000000000000000000000000000000000000000815260040161029190610a22565b60405180910390fd5b6000808381526020019081526020016000206002016040516020016102bf9190610b91565b6040516020818303038152906040529050919050565b60015481565b60006020528060005260406000206000915090508060000180546102fe90610a71565b80601f016020809104026020016040519081016040528092919081815260200182805461032a90610a71565b80156103775780601f1061034c57610100808354040283529160200191610377565b820191906000526020600020905b81548152906001019060200180831161035a57829003601f168201915b50505050509080600101805461038c90610a71565b80601f01602080910402602001604051908101604052809291908181526020018280546103b890610a71565b80156104055780601f106103da57610100808354040283529160200191610405565b820191906000526020600020905b8154815290600101906020018083116103e857829003601f168201915b50505050509080600201805461041a90610a71565b80601f016020809104026020016040519081016040528092919081815260200182805461044690610a71565b80156104935780601f1061046857610100808354040283529160200191610493565b820191906000526020600020905b81548152906001019060200180831161047657829003601f168201915b5050505050905083565b6000821180156104af57506001548211155b6104ee576040517f08c379a00000000000000000000000000000000000000000000000000000000081526004016104e590610a22565b60405180910390fd5b60008060008481526020019081526020016000209050818160020190816105159190610d4a565b50827f0e6aee90716038ee849a7bd60daccf2a8fd2b46b48f2f38c7fd3f93f895b75c4836040516105469190610735565b60405180910390a2505050565b6001600081548092919061056690610e4b565b9190505550604051806060016040528083815260200182815260200160405180602001604052806000815250815250600080600154815260200190815260200160002060008201518160000190816105be9190610d4a565b5060208201518160010190816105d49190610d4a565b5060408201518160020190816105ea9190610d4a565b509050506001547fe6f795e5fa571553befc6596ee84446b2f6a2d8721b61bd5cdff1897596851678383604051610622929190610e93565b60405180910390a25050565b6000604051905090565b600080fd5b600080fd5b6000819050919050565b61065581610642565b811461066057600080fd5b50565b6000813590506106728161064c565b92915050565b60006020828403121561068e5761068d610638565b5b600061069c84828501610663565b91505092915050565b600081519050919050565b600082825260208201905092915050565b60005b838110156106df5780820151818401526020810190506106c4565b60008484015250505050565b6000601f19601f8301169050919050565b6000610707826106a5565b61071181856106b0565b93506107218185602086016106c1565b61072a816106eb565b840191505092915050565b6000602082019050818103600083015261074f81846106fc565b905092915050565b61076081610642565b82525050565b600060208201905061077b6000830184610757565b92915050565b6000606082019050818103600083015261079b81866106fc565b905081810360208301526107af81856106fc565b905081810360408301526107c381846106fc565b9050949350505050565b600080fd5b600080fd5b7f4e487b7100000000000000000000000000000000000000000000000000000000600052604160045260246000fd5b61080f826106eb565b810181811067ffffffffffffffff8211171561082e5761082d6107d7565b5b80604052505050565b600061084161062e565b905061084d8282610806565b919050565b600067ffffffffffffffff82111561086d5761086c6107d7565b5b610876826106eb565b9050602081019050919050565b82818337600083830152505050565b60006108a56108a084610852565b610837565b9050828152602081018484840111156108c1576108c06107d2565b5b6108cc848285610883565b509392505050565b600082601f8301126108e9576108e86107cd565b5b81356108f9848260208601610892565b91505092915050565b6000806040838503121561091957610918610638565b5b600061092785828601610663565b925050602083013567ffffffffffffffff8111156109485761094761063d565b5b610954858286016108d4565b9150509250929050565b6000806040838503121561097557610974610638565b5b600083013567ffffffffffffffff8111156109935761099261063d565b5b61099f858286016108d4565b925050602083013567ffffffffffffffff8111156109c0576109bf61063d565b5b6109cc858286016108d4565b9150509250929050565b7f496e76616c696420717565727920494400000000000000000000000000000000600082015250565b6000610a0c6010836106b0565b9150610a17826109d6565b602082019050919050565b60006020820190508181036000830152610a3b816109ff565b9050919050565b7f4e487b7100000000000000000000000000000000000000000000000000000000600052602260045260246000fd5b60006002820490506001821680610a8957607f821691505b602082108103610a9c57610a9b610a42565b5b50919050565b600081905092915050565b7f68747470733a2f2f697066732e696f2f697066732f0000000000000000000000600082015250565b6000610ae3601583610aa2565b9150610aee82610aad565b601582019050919050565b60008190508160005260206000209050919050565b60008154610b1b81610a71565b610b258186610aa2565b94506001821660008114610b405760018114610b5557610b88565b60ff1983168652811515820286019350610b88565b610b5e85610af9565b60005b83811015610b8057815481890152600182019150602081019050610b61565b838801955050505b50505092915050565b6000610b9c82610ad6565b9150610ba88284610b0e565b915081905092915050565b60006020601f8301049050919050565b600082821b905092915050565b600060088302610c007fffffffffffffffffffffffffffffffffffffffffffffffffffffffffffffffff82610bc3565b610c0a8683610bc3565b95508019841693508086168417925050509392505050565b6000819050919050565b6000610c47610c42610c3d84610642565b610c22565b610642565b9050919050565b6000819050919050565b610c6183610c2c565b610c75610c6d82610c4e565b848454610bd0565b825550505050565b600090565b610c8a610c7d565b610c95818484610c58565b505050565b5b81811015610cb957610cae600082610c82565b600181019050610c9b565b5050565b601f821115610cfe57610ccf81610af9565b610cd884610bb3565b81016020851015610ce7578190505b610cfb610cf385610bb3565b830182610c9a565b50505b505050565b600082821c905092915050565b6000610d2160001984600802610d03565b1980831691505092915050565b6000610d3a8383610d10565b9150826002028217905092915050565b610d53826106a5565b67ffffffffffffffff811115610d6c57610d6b6107d7565b5b610d768254610a71565b610d81828285610cbd565b600060209050601f831160018114610db45760008415610da2578287015190505b610dac8582610d2e565b865550610e14565b601f198416610dc286610af9565b60005b82811015610dea57848901518255600182019150602085019450602081019050610dc5565b86831015610e075784890151610e03601f891682610d10565b8355505b6001600288020188555050505b505050505050565b7f4e487b7100000000000000000000000000000000000000000000000000000000600052601160045260246000fd5b6000610e5682610642565b91507fffffffffffffffffffffffffffffffffffffffffffffffffffffffffffffffff8203610e8857610e87610e1c565b5b600182019050919050565b60006040820190508181036000830152610ead81856106fc565b90508181036020830152610ec181846106fc565b9050939250505056fea2646970667358221220ef420f636d194bc000e6a39149f640068fc44d8fc4e0bea84458dfab56204eda64736f6c63430008180033",
  "linkReferences": {},
  "deployedLinkReferences": {}
}